:020000040800F2
:100000000000012095060008E5060008E506000846
:10001000E5060008E5060008E50600080000000007
:10002000000000000000000000000000E5060008DD
:10003000E506000800000000E5060008E5060008E7
:1000400000000000E5060008E5060008E5060008D7
:10005000E5060008E5060008F50200081D03000893
:10006000E5060008E5060008E506000800000000B7
:100070000000000000000000000000000000000080
:100080000000000000000000E5060008000000007D
:10009000000000000000000000000000E50600086D
:1000A000E5060008E5060008E5060008E506000884
:1000B000E5060008E506000800000000E506000867
:1000C000E5060008E5060008E5060008E506000864
:1000D000E50600080000000000000000000000002D
:1000E000E5060008E5060008E50600080000000037
:1000F0000000000000000000000000000000000000
:1001000000000000E506000800000000E506000809
:1001100000000000000000000000000000000000DF
:1001200000000000000000000000000000000000CF
:1001300000000000000000000000000000000000BF
:10014000000000000000000000000000E5060008BC
:10015000000000000000000000000000000000009F
:10016000E5060008E50600080000000000000000A9
:10017000000000000000000000000000000000007F
:1001800000000000E506000800000000000000007C
:04019000E506000878
:1001940010B5054C237833B9044B13B10448AFF3BD
:1001A40000800123237010BD2C04002000000000F7
:1001B4004C08000808B5034B1BB103490348AFF3CF
:1001C400008008BD00000000300400204C08000836
:1001D40080B485B000AF03460A46FB711346BB7179
:1001E4002C4B5B6C2B4A43F4804353640023FB6029
:1001F40012E0294ABB79023352F823100122FB682A
:1002040002FA03F3DA432448BB790A40023340F884
:100214002320FB680133FB60FB68032BE9DD00232B
:10022400BB6012E01C4ABB79023352F82320F979EF
:10023400BB6801FA03F318461749BB79024302333A
:1002440041F82320BB680133BB60BB68032BE9DDA5
:10025400124B1A68BB79012101FA03F30F491343C6
:100264000B600E4BDA68BB79012101FA03F30B49E9
:100274001343CB600A4B1A68BB790633012101FA98
:1002840003F3074913430B6000BF1437BD465DF801
:10029400047B70470038024000380140003C0140B4
:1002A40000E100E080B582B000AF00237B6013E082
:1002B4007B68D9B201227B6802FA03F35AB20A4B73
:1002C4001B785BB213405BB2DBB21A46074800F0FE
:1002D40087F87B6801337B607B68032BE8DD00BF14
:1002E4000837BD4680BD00BF48040020000402401A
:1002F40080B400AF074B1B78082B05D8054B1B783F
:100304000133DAB2034B1A7000BFBD465DF8047BBB
:10031400704700BF4804002080B400AF074B1B782F
:10032400002B05D0054B1B78013BDAB2034B1A7046
:1003340000BFBD465DF8047B704700BF4804002041
:1003440080B483B000AF7860084611461A4603466D
:10035400FB700B46BB7013467B70204B1A6B7B788B
:10036400012101FA03F31D4913430B63BB78002BEE
:1003740016D07B681A68FB785B00012101FA03F34D
:100384001A437B681A607B681A68FB785B00013348
:10039400012101FA03F3DB431A407B681A6016E07B
:1003A4007B681A68FB785B00012101FA03F3DB43E5
:1003B4001A407B681A607B681A68FB785B0001331B
:1003C400012101FA03F3DB431A407B681A6000BF82
:1003D4000C37BD465DF8047B704700BF003802400F
:1003E40080B483B000AF78600B46FB701346BB70DB
:1003F4007B681A68FB785B00012101FA03F3134060
:10040400002B18D0BB78002B09D07B685A69FB7885
:10041400012101FA03F31A437B685A6109E07B68FE
:100424005A69FB78012101FA03F3DB431A407B6824
:100434005A61002300E0012318460C37BD465DF8DD
:10044400047B704780B483B000AF78600B46FB70C8
:100454001346BB70BB78002B16D07B68DA68FB7838
:100464005B000133012101FA03F3DB431A407B688B
:10047400DA607B68DA68FB785B00012101FA03F338
:100484001A437B68DA6015E07B68DA68FB785B0006
:10049400012101FA03F3DB431A407B68DA607B68CD
:1004A400DA68FB785B000133012101FA03F31A4394
:1004B4007B68DA6000BF0C37BD465DF8047B70478B
:1004C40080B582B000AF0023002200211648FFF758
:1004D40037FF0023002201211348FFF731FF0122D7
:1004E40000211148FFF7AEFF012201210E48FFF75A
:1004F400A9FF00237B6009E07B68D9B201230122B4
:100504000A48FFF71DFF7B6801337B607B68032B80
:10051400F2DD00210020FFF75BFE01210020FFF740
:1005240057FEFFF7BFFEFCE7000002400004024054
:1005340080B500AF164BD3F88830154A43F47003E6
:10054400C2F88830134B1B68124A43F0010313604E
:10055400104B00229A600F4B1B680E4A23F08473E1
:1005640023F4803313600B4B0B4A5A60094B1B680E
:10057400084A23F480231360064B0022DA6000F05B
:100584000DF8034B4FF000629A6000BF80BD00BFBE
:1005940000ED00E0003802401030002480B483B045
:1005A40000AF00237B6000233B60354B1B68344A5B
:1005B40043F480331360324B1B6803F400333B6015
:1005C4007B6801337B603B68002B03D17B68B3F508
:1005D400A04FF0D12A4B1B6803F40033002B02D048
:1005E40001233B6001E000233B603B68012B40D1C9
:1005F400234B1B6C224A43F080531364214B1B682A
:10060400204A43F4404313601D4B1D4A9B6893608A
:100614001B4B1B4A9B689360194B9B68184A43F415
:1006240080539360164B184A5A60154B1B68144A42
:1006340043F08073136000BF114B1B6803F0007319
:10064400002BF9D0114B40F202721A600C4B9B68DC
:100654000B4A23F003039360094B9B68084A43F059
:100664000203936000BF064B9B6803F00C03082B46
:10067400F9D100BF0C37BD465DF8047B704700BF5D
:10068400003802400070004019544107003C024009
:100694000D4885460D480E490E4A002302E0D45801
:1006A400C4500433C4188C42F9D30B4A0B4C0023B6
:1006B40001E013600432A242FBD3FFF739FF00F0DC
:1006C40011F8FFF7FDFEFEE7000001200000002006
:1006D4002C040020740800082C040020700400205E
:1006E400FEE7000070B50D4E0D4D761BB61006D01A
:1006F4000024013455F8043B9847A642F9D1094E29
:10070400094D761B00F0A0F8B61006D00024013481
:1007140055F8043B9847A642F9D170BD6808000813
:10072400680800087008000868080008024B13B144
:10073400024800F005B870470000000051070008A7
:10074400002301461A46184600F01EB838B50A4C74
:100754000A4D641BA4100AD004F18043013B05EB4D
:100764008305013C55F804399847002CF9D1BDE8BC
:10077400384000F06FB800BF740800087008000823
:10078400704700BF704700BF2DE9F8432B4D064664
:10079400286898460F469146FFF7F2FF284B1C68DD
:1007A400D4F84831002B3DD05A681F2A0DDC02F1E1
:1007B400010C16BB0232C3F804C0286843F8227047
:1007C400FFF7E0FF0020BDE8F8831E4B7BB34FF436
:1007D400C870AFF30080034648B3D4F84821002121
:1007E400C0E900214FF0010CC4F848010A46C0F8E2
:1007F4008811C0F88C11002EDCD003EB8201012497
:10080400C1F88890D3F8880194402043022EC3F89D
:100814008801C1F80881CDD1D3F88C110C43C3F8F9
:100824008C41C7E704F5A673C4F84831BCE72868CF
:10083400FFF7A8FF4FF0FF30C5E700BF28040020F2
:100844006408000800000000F8B500BFF8BC08BC4C
:100854009E467047F8B500BFF8BC08BC9E4670477A
:040864000000002070
:0808680031070008B901000886
:0408700095010008E6
:1008740000000000EC02002054030020BC03002010
:100884000000000000000000000000000000000064
:100894000000000000000000000000000000000054
:1008A4000000000000000000000000000000000044
:1008B4000000000000000000000000000000000034
:1008C4000000000000000000000000000000000024
:1008D4000000000000000000000000000000000014
:1008E4000000000000000000000000000000000004
:1008F40000000000000000000000000000000000F4
:1009040000000000000000000000000000000000E3
:1009140000000000000000000100000000000000D2
:100924000E33CDAB34126DE6ECDE05000B00000097
:1009340000000000000000000000000000000000B3
:1009440000000000000000000000000000000000A3
:100954000000000000000000000000000000000093
:100964000000000000000000000000000000000083
:0C0C940000000000000000004C040020E4
:040000050800069554
:00000001FF
